{
  "_format": "hh-sol-artifact-1",
  "contractName": "Election",
  "sourceName": "contracts/Election.sol",
  "abi": [
    {
      "inputs": [],
      "stateMutability": "nonpayable",
      "type": "constructor"
    },
    {
      "anonymous": false,
      "inputs": [
        {
          "indexed": true,
          "internalType": "string",
          "name": "id",
          "type": "string"
        },
        {
          "indexed": false,
          "internalType": "uint256",
          "name": "candidateId",
          "type": "uint256"
        },
        {
          "indexed": false,
          "internalType": "string",
          "name": "major",
          "type": "string"
        },
        {
          "indexed": false,
          "internalType": "uint256",
          "name": "timestamp",
          "type": "uint256"
        }
      ],
      "name": "VoteCast",
      "type": "event"
    },
    {
      "anonymous": false,
      "inputs": [
        {
          "indexed": true,
          "internalType": "string",
          "name": "id",
          "type": "string"
        },
        {
          "indexed": false,
          "internalType": "string",
          "name": "major",
          "type": "string"
        }
      ],
      "name": "VoterAdded",
      "type": "event"
    },
    {
      "anonymous": false,
      "inputs": [
        {
          "indexed": true,
          "internalType": "string",
          "name": "id",
          "type": "string"
        }
      ],
      "name": "VoterRemoved",
      "type": "event"
    },
    {
      "inputs": [
        {
          "internalType": "string",
          "name": "_id",
          "type": "string"
        },
        {
          "internalType": "string",
          "name": "_major",
          "type": "string"
        }
      ],
      "name": "addVoter",
      "outputs": [],
      "stateMutability": "nonpayable",
      "type": "function"
    },
    {
      "inputs": [],
      "name": "admin",
      "outputs": [
        {
          "internalType": "address",
          "name": "",
          "type": "address"
        }
      ],
      "stateMutability": "view",
      "type": "function"
    },
    {
      "inputs": [
        {
          "internalType": "uint256",
          "name": "_count",
          "type": "uint256"
        }
      ],
      "name": "getVoteHistory",
      "outputs": [
        {
          "components": [
            {
              "internalType": "string",
              "name": "voterId",
              "type": "string"
            },
            {
              "internalType": "uint256",
              "name": "candidateId",
              "type": "uint256"
            },
            {
              "internalType": "uint256",
              "name": "timestamp",
              "type": "uint256"
            }
          ],
          "internalType": "struct Election.Vote[]",
          "name": "",
          "type": "tuple[]"
        }
      ],
      "stateMutability": "view",
      "type": "function"
    },
    {
      "inputs": [
        {
          "internalType": "string",
          "name": "_id",
          "type": "string"
        }
      ],
      "name": "getVoterInfo",
      "outputs": [
        {
          "internalType": "bool",
          "name": "",
          "type": "bool"
        },
        {
          "internalType": "uint256",
          "name": "",
          "type": "uint256"
        }
      ],
      "stateMutability": "view",
      "type": "function"
    },
    {
      "inputs": [
        {
          "internalType": "string",
          "name": "_id",
          "type": "string"
        }
      ],
      "name": "removeVoter",
      "outputs": [],
      "stateMutability": "nonpayable",
      "type": "function"
    },
    {
      "inputs": [
        {
          "internalType": "uint256",
          "name": "_candidateId",
          "type": "uint256"
        },
        {
          "internalType": "string",
          "name": "_major",
          "type": "string"
        }
      ],
      "name": "totalVotesByMajor",
      "outputs": [
        {
          "internalType": "uint256",
          "name": "",
          "type": "uint256"
        }
      ],
      "stateMutability": "view",
      "type": "function"
    },
    {
      "inputs": [
        {
          "internalType": "uint256",
          "name": "_candidateId",
          "type": "uint256"
        }
      ],
      "name": "totalVotesFor",
      "outputs": [
        {
          "internalType": "uint256",
          "name": "",
          "type": "uint256"
        }
      ],
      "stateMutability": "view",
      "type": "function"
    },
    {
      "inputs": [
        {
          "internalType": "string",
          "name": "_id",
          "type": "string"
        },
        {
          "internalType": "uint256",
          "name": "_candidateId",
          "type": "uint256"
        }
      ],
      "name": "vote",
      "outputs": [],
      "stateMutability": "nonpayable",
      "type": "function"
    },
    {
      "inputs": [
        {
          "internalType": "uint256",
          "name": "",
          "type": "uint256"
        }
      ],
      "name": "voteHistory",
      "outputs": [
        {
          "internalType": "string",
          "name": "voterId",
          "type": "string"
        },
        {
          "internalType": "uint256",
          "name": "candidateId",
          "type": "uint256"
        },
        {
          "internalType": "uint256",
          "name": "timestamp",
          "type": "uint256"
        }
      ],
      "stateMutability": "view",
      "type": "function"
    },
    {
      "inputs": [
        {
          "internalType": "string",
          "name": "",
          "type": "string"
        }
      ],
      "name": "voters",
      "outputs": [
        {
          "internalType": "bool",
          "name": "hasVoted",
          "type": "bool"
        },
        {
          "internalType": "uint256",
          "name": "vote",
          "type": "uint256"
        },
        {
          "internalType": "string",
          "name": "major",
          "type": "string"
        }
      ],
      "stateMutability": "view",
      "type": "function"
    },
    {
      "inputs": [],
      "name": "votersCount",
      "outputs": [
        {
          "internalType": "uint256",
          "name": "",
          "type": "uint256"
        }
      ],
      "stateMutability": "view",
      "type": "function"
    },
    {
      "inputs": [
        {
          "internalType": "uint256",
          "name": "",
          "type": "uint256"
        }
      ],
      "name": "votes",
      "outputs": [
        {
          "internalType": "uint256",
          "name": "",
          "type": "uint256"
        }
      ],
      "stateMutability": "view",
      "type": "function"
    },
    {
      "inputs": [
        {
          "internalType": "uint256",
          "name": "",
          "type": "uint256"
        },
        {
          "internalType": "string",
          "name": "",
          "type": "string"
        }
      ],
      "name": "votesByMajor",
      "outputs": [
        {
          "internalType": "uint256",
          "name": "",
          "type": "uint256"
        }
      ],
      "stateMutability": "view",
      "type": "function"
    }
  ],
  "bytecode": "0x608060405234801561001057600080fd5b50336000806101000a81548173ffffffffffffffffffffffffffffffffffffffff021916908373ffffffffffffffffffffffffffffffffffffffff160217905550611d5f806100606000396000f3fe608060405234801561001057600080fd5b50600436106100cf5760003560e01c80639fbe29c01161008c578063c0f616e811610066578063c0f616e81461024e578063d944bff41461027e578063ef135b37146102af578063f851a440146102cb576100cf565b80639fbe29c0146101d2578063a638580314610202578063a805f1ca1461021e576100cf565b806312b1d5ac146100d457806353fa2e64146101065780635df81330146101385780638346488e14610168578063853671b91461019857806398c07938146101b4575b600080fd5b6100ee60048036038101906100e99190610e9d565b6102e9565b6040516100fd93929190610f69565b60405180910390f35b610120600480360381019061011b91906110dc565b6103ab565b60405161012f93929190611140565b60405180910390f35b610152600480360381019061014d9190610e9d565b610480565b60405161015f919061117e565b60405180910390f35b610182600480360381019061017d9190610e9d565b610498565b60405161018f9190611304565b60405180910390f35b6101b260048036038101906101ad9190611326565b610644565b005b6101bc61082a565b6040516101c9919061117e565b60405180910390f35b6101ec60048036038101906101e7919061139e565b610830565b6040516101f9919061117e565b60405180910390f35b61021c600480360381019061021791906113fa565b61086b565b005b61023860048036038101906102339190610e9d565b610a85565b604051610245919061117e565b60405180910390f35b6102686004803603810190610263919061139e565b610aa2565b604051610275919061117e565b60405180910390f35b610298600480360381019061029391906110dc565b610adc565b6040516102a6929190611456565b60405180910390f35b6102c960048036038101906102c491906110dc565b610bd7565b005b6102d3610db1565b6040516102e091906114c0565b60405180910390f35b600481815481106102f957600080fd5b906000526020600020906003020160009150905080600001805461031c9061150a565b80601f01602080910402602001604051908101604052809291908181526020018280546103489061150a565b80156103955780601f1061036a57610100808354040283529160200191610395565b820191906000526020600020905b81548152906001019060200180831161037857829003601f168201915b5050505050908060010154908060020154905083565b6003818051602081018201805184825260208301602085012081835280955050505050506000915090508060000160009054906101000a900460ff16908060010154908060020180546103fd9061150a565b80601f01602080910402602001604051908101604052809291908181526020018280546104299061150a565b80156104765780601f1061044b57610100808354040283529160200191610476565b820191906000526020600020905b81548152906001019060200180831161045957829003601f168201915b5050505050905083565b60016020528060005260406000206000915090505481565b6060600060048054905090506000808414806104b357508184115b6104bd57836104bf565b815b905060008167ffffffffffffffff8111156104dd576104dc610fb1565b5b60405190808252806020026020018201604052801561051657816020015b610503610dd5565b8152602001906001900390816104fb5790505b50905060005b82811015610638576004818486610533919061156a565b61053d919061159e565b8154811061054e5761054d6115d2565b5b90600052602060002090600302016040518060600160405290816000820180546105779061150a565b80601f01602080910402602001604051908101604052809291908181526020018280546105a39061150a565b80156105f05780601f106105c5576101008083540402835291602001916105f0565b820191906000526020600020905b8154815290600101906020018083116105d357829003601f168201915b50505050508152602001600182015481526020016002820154815250508282815181106106205761061f6115d2565b5b6020026020010181905250808060010191505061051c565b50809350505050919050565b60008054906101000a900473ffffffffffffffffffffffffffffffffffffffff1673ffffffffffffffffffffffffffffffffffffffff163373ffffffffffffffffffffffffffffffffffffffff16146106d2576040517f08c379a00000000000000000000000000000000000000000000000000000000081526004016106c990611673565b60405180910390fd5b6003826040516106e291906116cf565b908152602001604051809103902060000160009054906101000a900460ff1615610741576040517f08c379a000000000000000000000000000000000000000000000000000000000815260040161073890611732565b60405180910390fd5b6040518060600160405280600015158152602001600081526020018281525060038360405161077091906116cf565b908152602001604051809103902060008201518160000160006101000a81548160ff0219169083151502179055506020820151816001015560408201518160020190816107bd91906118fe565b50905050600560008154809291906107d4906119d0565b9190505550816040516107e791906116cf565b60405180910390207f194f83e0e5b0a8eab4472998c2f463089b333601aa9e94220407d5fae782723e8260405161081e9190611a18565b60405180910390a25050565b60055481565b600260205281600052604060002081805160208101820180518482526020830160208501208183528095505050505050600091509150505481565b600060038360405161087d91906116cf565b9081526020016040518091039020905060008351116108d1576040517f08c379a00000000000000000000000000000000000000000000000000000000081526004016108c890611a86565b60405180910390fd5b8060000160009054906101000a900460ff1615610923576040517f08c379a000000000000000000000000000000000000000000000000000000000815260040161091a90611af2565b60405180910390fd5b60018160000160006101000a81548160ff02191690831515021790555081816001018190555060016000838152602001908152602001600020600081548092919061096d906119d0565b919050555060026000838152602001908152602001600020816002016040516109969190611b95565b908152602001604051809103902060008154809291906109b5906119d0565b9190505550600460405180606001604052808581526020018481526020014281525090806001815401808255809150506001900390600052602060002090600302016000909190919091506000820151816000019081610a1591906118fe565b506020820151816001015560408201518160020155505082604051610a3a91906116cf565b60405180910390207f29f332f3b60d6a7dcccd74f2b9c66f2c7c98bf9f50f4970744caa04942df35e3838360020142604051610a7893929190611c30565b60405180910390a2505050565b600060016000838152602001908152602001600020549050919050565b60006002600084815260200190815260200160002082604051610ac591906116cf565b908152602001604051809103902054905092915050565b6000806000600384604051610af191906116cf565b90815260200160405180910390206040518060600160405290816000820160009054906101000a900460ff1615151515815260200160018201548152602001600282018054610b3f9061150a565b80601f0160208091040260200160405190810160405280929190818152602001828054610b6b9061150a565b8015610bb85780601f10610b8d57610100808354040283529160200191610bb8565b820191906000526020600020905b815481529060010190602001808311610b9b57829003601f168201915b5050505050815250509050806000015181602001519250925050915091565b60008054906101000a900473ffffffffffffffffffffffffffffffffffffffff1673ffffffffffffffffffffffffffffffffffffffff163373ffffffffffffffffffffffffffffffffffffffff1614610c65576040517f08c379a0000000000000000000000000000000000000000000000000000000008152600401610c5c90611673565b60405180910390fd5b60001515600382604051610c7991906116cf565b908152602001604051809103902060000160009054906101000a900460ff161515148015610cc857506000600382604051610cb491906116cf565b908152602001604051809103902060010154145b610d07576040517f08c379a0000000000000000000000000000000000000000000000000000000008152600401610cfe90611ce0565b60405180910390fd5b600381604051610d1791906116cf565b9081526020016040518091039020600080820160006101000a81549060ff02191690556001820160009055600282016000610d529190610df6565b505060056000815480929190610d6790611d00565b919050555080604051610d7a91906116cf565b60405180910390207fb899564762787ce77e1c3daf50221982caed2f56067b299766631f5eb026e80e60405160405180910390a250565b60008054906101000a900473ffffffffffffffffffffffffffffffffffffffff1681565b60405180606001604052806060815260200160008152602001600081525090565b508054610e029061150a565b6000825580601f10610e145750610e33565b601f016020900490600052602060002090810190610e329190610e36565b5b50565b5b80821115610e4f576000816000905550600101610e37565b5090565b6000604051905090565b600080fd5b600080fd5b6000819050919050565b610e7a81610e67565b8114610e8557600080fd5b50565b600081359050610e9781610e71565b92915050565b600060208284031215610eb357610eb2610e5d565b5b6000610ec184828501610e88565b91505092915050565b600081519050919050565b600082825260208201905092915050565b60005b83811015610f04578082015181840152602081019050610ee9565b60008484015250505050565b6000601f19601f8301169050919050565b6000610f2c82610eca565b610f368185610ed5565b9350610f46818560208601610ee6565b610f4f81610f10565b840191505092915050565b610f6381610e67565b82525050565b60006060820190508181036000830152610f838186610f21565b9050610f926020830185610f5a565b610f9f6040830184610f5a565b949350505050565b600080fd5b600080fd5b7f4e487b7100000000000000000000000000000000000000000000000000000000600052604160045260246000fd5b610fe982610f10565b810181811067ffffffffffffffff8211171561100857611007610fb1565b5b80604052505050565b600061101b610e53565b90506110278282610fe0565b919050565b600067ffffffffffffffff82111561104757611046610fb1565b5b61105082610f10565b9050602081019050919050565b82818337600083830152505050565b600061107f61107a8461102c565b611011565b90508281526020810184848401111561109b5761109a610fac565b5b6110a684828561105d565b509392505050565b600082601f8301126110c3576110c2610fa7565b5b81356110d384826020860161106c565b91505092915050565b6000602082840312156110f2576110f1610e5d565b5b600082013567ffffffffffffffff8111156111105761110f610e62565b5b61111c848285016110ae565b91505092915050565b60008115159050919050565b61113a81611125565b82525050565b60006060820190506111556000830186611131565b6111626020830185610f5a565b81810360408301526111748184610f21565b9050949350505050565b60006020820190506111936000830184610f5a565b92915050565b600081519050919050565b600082825260208201905092915050565b6000819050602082019050919050565b600082825260208201905092915050565b60006111e182610eca565b6111eb81856111c5565b93506111fb818560208601610ee6565b61120481610f10565b840191505092915050565b61121881610e67565b82525050565b6000606083016000830151848203600086015261123b82826111d6565b9150506020830151611250602086018261120f565b506040830151611263604086018261120f565b508091505092915050565b600061127a838361121e565b905092915050565b6000602082019050919050565b600061129a82611199565b6112a481856111a4565b9350836020820285016112b6856111b5565b8060005b858110156112f257848403895281516112d3858261126e565b94506112de83611282565b925060208a019950506001810190506112ba565b50829750879550505050505092915050565b6000602082019050818103600083015261131e818461128f565b905092915050565b6000806040838503121561133d5761133c610e5d565b5b600083013567ffffffffffffffff81111561135b5761135a610e62565b5b611367858286016110ae565b925050602083013567ffffffffffffffff81111561138857611387610e62565b5b611394858286016110ae565b9150509250929050565b600080604083850312156113b5576113b4610e5d565b5b60006113c385828601610e88565b925050602083013567ffffffffffffffff8111156113e4576113e3610e62565b5b6113f0858286016110ae565b9150509250929050565b6000806040838503121561141157611410610e5d565b5b600083013567ffffffffffffffff81111561142f5761142e610e62565b5b61143b858286016110ae565b925050602061144c85828601610e88565b9150509250929050565b600060408201905061146b6000830185611131565b6114786020830184610f5a565b9392505050565b600073ffffffffffffffffffffffffffffffffffffffff82169050919050565b60006114aa8261147f565b9050919050565b6114ba8161149f565b82525050565b60006020820190506114d560008301846114b1565b92915050565b7f4e487b7100000000000000000000000000000000000000000000000000000000600052602260045260246000fd5b6000600282049050600182168061152257607f821691505b602082108103611535576115346114db565b5b50919050565b7f4e487b7100000000000000000000000000000000000000000000000000000000600052601160045260246000fd5b600061157582610e67565b915061158083610e67565b92508282039050818111156115985761159761153b565b5b92915050565b60006115a982610e67565b91506115b483610e67565b92508282019050808211156115cc576115cb61153b565b5b92915050565b7f4e487b7100000000000000000000000000000000000000000000000000000000600052603260045260246000fd5b7f4f6e6c792061646d696e2063616e20706572666f726d2074686973206163746960008201527f6f6e000000000000000000000000000000000000000000000000000000000000602082015250565b600061165d602283610ed5565b915061166882611601565b604082019050919050565b6000602082019050818103600083015261168c81611650565b9050919050565b600081905092915050565b60006116a982610eca565b6116b38185611693565b93506116c3818560208601610ee6565b80840191505092915050565b60006116db828461169e565b915081905092915050565b7f566f74657220616c726561647920616464656400000000000000000000000000600082015250565b600061171c601383610ed5565b9150611727826116e6565b602082019050919050565b6000602082019050818103600083015261174b8161170f565b9050919050565b60008190508160005260206000209050919050565b60006020601f8301049050919050565b600082821b905092915050565b6000600883026117b47fffffffffffffffffffffffffffffffffffffffffffffffffffffffffffffffff82611777565b6117be8683611777565b95508019841693508086168417925050509392505050565b6000819050919050565b60006117fb6117f66117f184610e67565b6117d6565b610e67565b9050919050565b6000819050919050565b611815836117e0565b61182961182182611802565b848454611784565b825550505050565b600090565b61183e611831565b61184981848461180c565b505050565b5b8181101561186d57611862600082611836565b60018101905061184f565b5050565b601f8211156118b25761188381611752565b61188c84611767565b8101602085101561189b578190505b6118af6118a785611767565b83018261184e565b50505b505050565b600082821c905092915050565b60006118d5600019846008026118b7565b1980831691505092915050565b60006118ee83836118c4565b9150826002028217905092915050565b61190782610eca565b67ffffffffffffffff8111156119205761191f610fb1565b5b61192a825461150a565b611935828285611871565b600060209050601f8311600181146119685760008415611956578287015190505b61196085826118e2565b8655506119c8565b601f19841661197686611752565b60005b8281101561199e57848901518255600182019150602085019450602081019050611979565b868310156119bb57848901516119b7601f8916826118c4565b8355505b6001600288020188555050505b505050505050565b60006119db82610e67565b91507fffffffffffffffffffffffffffffffffffffffffffffffffffffffffffffffff8203611a0d57611a0c61153b565b5b600182019050919050565b60006020820190508181036000830152611a328184610f21565b905092915050565b7f496e76616c696420766f74657220494400000000000000000000000000000000600082015250565b6000611a70601083610ed5565b9150611a7b82611a3a565b602082019050919050565b60006020820190508181036000830152611a9f81611a63565b9050919050565b7f566f7465722068617320616c726561647920766f746564000000000000000000600082015250565b6000611adc601783610ed5565b9150611ae782611aa6565b602082019050919050565b60006020820190508181036000830152611b0b81611acf565b9050919050565b60008154611b1f8161150a565b611b298186611693565b94506001821660008114611b445760018114611b5957611b8c565b60ff1983168652811515820286019350611b8c565b611b6285611752565b60005b83811015611b8457815481890152600182019150602081019050611b65565b838801955050505b50505092915050565b6000611ba18284611b12565b915081905092915050565b60008154611bb98161150a565b611bc38186610ed5565b94506001821660008114611bde5760018114611bf457611c27565b60ff198316865281151560200286019350611c27565b611bfd85611752565b60005b83811015611c1f57815481890152600182019150602081019050611c00565b808801955050505b50505092915050565b6000606082019050611c456000830186610f5a565b8181036020830152611c578185611bac565b9050611c666040830184610f5a565b949350505050565b7f566f746572206e6f742072656769737465726564206f7220616c72656164792060008201527f766f746564000000000000000000000000000000000000000000000000000000602082015250565b6000611cca602583610ed5565b9150611cd582611c6e565b604082019050919050565b60006020820190508181036000830152611cf981611cbd565b9050919050565b6000611d0b82610e67565b915060008203611d1e57611d1d61153b565b5b60018203905091905056fea2646970667358221220593cbcf45454b9b4d0be2515826551a7d448fdba202482549529ef7ea078e22c64736f6c63430008180033",
  "linkReferences": {},
  "deployedLinkReferences": {}
}