{
  "_format": "hh-sol-artifact-1",
  "contractName": "Election",
  "sourceName": "contracts/Election.sol",
  "abi": [
    {
      "inputs": [],
      "stateMutability": "nonpayable",
      "type": "constructor"
    },
    {
      "anonymous": false,
      "inputs": [
        {
          "indexed": true,
          "internalType": "string",
          "name": "id",
          "type": "string"
        },
        {
          "indexed": false,
          "internalType": "uint256",
          "name": "candidateId",
          "type": "uint256"
        }
      ],
      "name": "VoteCast",
      "type": "event"
    },
    {
      "anonymous": false,
      "inputs": [
        {
          "indexed": true,
          "internalType": "string",
          "name": "id",
          "type": "string"
        }
      ],
      "name": "VoterAdded",
      "type": "event"
    },
    {
      "anonymous": false,
      "inputs": [
        {
          "indexed": true,
          "internalType": "string",
          "name": "id",
          "type": "string"
        }
      ],
      "name": "VoterRemoved",
      "type": "event"
    },
    {
      "inputs": [
        {
          "internalType": "string",
          "name": "_id",
          "type": "string"
        }
      ],
      "name": "addVoter",
      "outputs": [],
      "stateMutability": "nonpayable",
      "type": "function"
    },
    {
      "inputs": [],
      "name": "admin",
      "outputs": [
        {
          "internalType": "address",
          "name": "",
          "type": "address"
        }
      ],
      "stateMutability": "view",
      "type": "function"
    },
    {
      "inputs": [
        {
          "internalType": "string",
          "name": "_id",
          "type": "string"
        }
      ],
      "name": "getVoterInfo",
      "outputs": [
        {
          "internalType": "bool",
          "name": "",
          "type": "bool"
        },
        {
          "internalType": "uint256",
          "name": "",
          "type": "uint256"
        }
      ],
      "stateMutability": "view",
      "type": "function"
    },
    {
      "inputs": [
        {
          "internalType": "string",
          "name": "_id",
          "type": "string"
        }
      ],
      "name": "removeVoter",
      "outputs": [],
      "stateMutability": "nonpayable",
      "type": "function"
    },
    {
      "inputs": [
        {
          "internalType": "uint256",
          "name": "_candidateId",
          "type": "uint256"
        }
      ],
      "name": "totalVotesFor",
      "outputs": [
        {
          "internalType": "uint256",
          "name": "",
          "type": "uint256"
        }
      ],
      "stateMutability": "view",
      "type": "function"
    },
    {
      "inputs": [
        {
          "internalType": "string",
          "name": "_id",
          "type": "string"
        },
        {
          "internalType": "uint256",
          "name": "_candidateId",
          "type": "uint256"
        }
      ],
      "name": "vote",
      "outputs": [],
      "stateMutability": "nonpayable",
      "type": "function"
    },
    {
      "inputs": [
        {
          "internalType": "string",
          "name": "",
          "type": "string"
        }
      ],
      "name": "voters",
      "outputs": [
        {
          "internalType": "bool",
          "name": "hasVoted",
          "type": "bool"
        },
        {
          "internalType": "uint256",
          "name": "vote",
          "type": "uint256"
        }
      ],
      "stateMutability": "view",
      "type": "function"
    },
    {
      "inputs": [],
      "name": "votersCount",
      "outputs": [
        {
          "internalType": "uint256",
          "name": "",
          "type": "uint256"
        }
      ],
      "stateMutability": "view",
      "type": "function"
    },
    {
      "inputs": [
        {
          "internalType": "uint256",
          "name": "",
          "type": "uint256"
        }
      ],
      "name": "votes",
      "outputs": [
        {
          "internalType": "uint256",
          "name": "",
          "type": "uint256"
        }
      ],
      "stateMutability": "view",
      "type": "function"
    }
  ],
  "bytecode": "0x608060405234801561001057600080fd5b50336000806101000a81548173ffffffffffffffffffffffffffffffffffffffff021916908373ffffffffffffffffffffffffffffffffffffffff160217905550610e2d806100606000396000f3fe608060405234801561001057600080fd5b50600436106100935760003560e01c8063a805f1ca11610066578063a805f1ca14610133578063aca8489214610163578063d944bff41461017f578063ef135b37146101b0578063f851a440146101cc57610093565b806353fa2e64146100985780635df81330146100c957806398c07938146100f9578063a638580314610117575b600080fd5b6100b260048036038101906100ad91906108f0565b6101ea565b6040516100c092919061096d565b60405180910390f35b6100e360048036038101906100de91906109c2565b610231565b6040516100f091906109ef565b60405180910390f35b610101610249565b60405161010e91906109ef565b60405180910390f35b610131600480360381019061012c9190610a0a565b61024f565b005b61014d600480360381019061014891906109c2565b610364565b60405161015a91906109ef565b60405180910390f35b61017d600480360381019061017891906108f0565b610381565b005b610199600480360381019061019491906108f0565b61053f565b6040516101a792919061096d565b60405180910390f35b6101ca60048036038101906101c591906108f0565b6105a8565b005b6101d4610772565b6040516101e19190610aa7565b60405180910390f35b6002818051602081018201805184825260208301602085012081835280955050505050506000915090508060000160009054906101000a900460ff16908060010154905082565b60016020528060005260406000206000915090505481565b60035481565b60006002836040516102619190610b33565b908152602001604051809103902090508060000160009054906101000a900460ff16156102c3576040517f08c379a00000000000000000000000000000000000000000000000000000000081526004016102ba90610ba7565b60405180910390fd5b60018160000160006101000a81548160ff02191690831515021790555081816001018190555060016000838152602001908152602001600020600081548092919061030d90610bf6565b9190505550826040516103209190610b33565b60405180910390207f777e12406713e556f995ae7467576ea751d01f243ff84668ef43b36634f3fa888360405161035791906109ef565b60405180910390a2505050565b600060016000838152602001908152602001600020549050919050565b60008054906101000a900473ffffffffffffffffffffffffffffffffffffffff1673ffffffffffffffffffffffffffffffffffffffff163373ffffffffffffffffffffffffffffffffffffffff161461040f576040517f08c379a000000000000000000000000000000000000000000000000000000000815260040161040690610cb0565b60405180910390fd5b60028160405161041f9190610b33565b908152602001604051809103902060000160009054906101000a900460ff161561047e576040517f08c379a000000000000000000000000000000000000000000000000000000000815260040161047590610d1c565b60405180910390fd5b604051806040016040528060001515815260200160008152506002826040516104a79190610b33565b908152602001604051809103902060008201518160000160006101000a81548160ff02191690831515021790555060208201518160010155905050600360008154809291906104f590610bf6565b9190505550806040516105089190610b33565b60405180910390207fdcebcfb627b243e6818c635904479b5495898026b9d25b805fb8484cb389aa0060405160405180910390a250565b60008060006002846040516105549190610b33565b90815260200160405180910390206040518060400160405290816000820160009054906101000a900460ff161515151581526020016001820154815250509050806000015181602001519250925050915091565b60008054906101000a900473ffffffffffffffffffffffffffffffffffffffff1673ffffffffffffffffffffffffffffffffffffffff163373ffffffffffffffffffffffffffffffffffffffff1614610636576040517f08c379a000000000000000000000000000000000000000000000000000000000815260040161062d90610cb0565b60405180910390fd5b6000151560028260405161064a9190610b33565b908152602001604051809103902060000160009054906101000a900460ff161515148015610699575060006002826040516106859190610b33565b908152602001604051809103902060010154145b6106d8576040517f08c379a00000000000000000000000000000000000000000000000000000000081526004016106cf90610dae565b60405180910390fd5b6002816040516106e89190610b33565b9081526020016040518091039020600080820160006101000a81549060ff0219169055600182016000905550506003600081548092919061072890610dce565b91905055508060405161073b9190610b33565b60405180910390207fb899564762787ce77e1c3daf50221982caed2f56067b299766631f5eb026e80e60405160405180910390a250565b60008054906101000a900473ffffffffffffffffffffffffffffffffffffffff1681565b6000604051905090565b600080fd5b600080fd5b600080fd5b600080fd5b6000601f19601f8301169050919050565b7f4e487b7100000000000000000000000000000000000000000000000000000000600052604160045260246000fd5b6107fd826107b4565b810181811067ffffffffffffffff8211171561081c5761081b6107c5565b5b80604052505050565b600061082f610796565b905061083b82826107f4565b919050565b600067ffffffffffffffff82111561085b5761085a6107c5565b5b610864826107b4565b9050602081019050919050565b82818337600083830152505050565b600061089361088e84610840565b610825565b9050828152602081018484840111156108af576108ae6107af565b5b6108ba848285610871565b509392505050565b600082601f8301126108d7576108d66107aa565b5b81356108e7848260208601610880565b91505092915050565b600060208284031215610906576109056107a0565b5b600082013567ffffffffffffffff811115610924576109236107a5565b5b610930848285016108c2565b91505092915050565b60008115159050919050565b61094e81610939565b82525050565b6000819050919050565b61096781610954565b82525050565b60006040820190506109826000830185610945565b61098f602083018461095e565b9392505050565b61099f81610954565b81146109aa57600080fd5b50565b6000813590506109bc81610996565b92915050565b6000602082840312156109d8576109d76107a0565b5b60006109e6848285016109ad565b91505092915050565b6000602082019050610a04600083018461095e565b92915050565b60008060408385031215610a2157610a206107a0565b5b600083013567ffffffffffffffff811115610a3f57610a3e6107a5565b5b610a4b858286016108c2565b9250506020610a5c858286016109ad565b9150509250929050565b600073ffffffffffffffffffffffffffffffffffffffff82169050919050565b6000610a9182610a66565b9050919050565b610aa181610a86565b82525050565b6000602082019050610abc6000830184610a98565b92915050565b600081519050919050565b600081905092915050565b60005b83811015610af6578082015181840152602081019050610adb565b60008484015250505050565b6000610b0d82610ac2565b610b178185610acd565b9350610b27818560208601610ad8565b80840191505092915050565b6000610b3f8284610b02565b915081905092915050565b600082825260208201905092915050565b7f566f7465722068617320616c726561647920766f746564000000000000000000600082015250565b6000610b91601783610b4a565b9150610b9c82610b5b565b602082019050919050565b60006020820190508181036000830152610bc081610b84565b9050919050565b7f4e487b7100000000000000000000000000000000000000000000000000000000600052601160045260246000fd5b6000610c0182610954565b91507fffffffffffffffffffffffffffffffffffffffffffffffffffffffffffffffff8203610c3357610c32610bc7565b5b600182019050919050565b7f4f6e6c792061646d696e2063616e20706572666f726d2074686973206163746960008201527f6f6e000000000000000000000000000000000000000000000000000000000000602082015250565b6000610c9a602283610b4a565b9150610ca582610c3e565b604082019050919050565b60006020820190508181036000830152610cc981610c8d565b9050919050565b7f566f74657220616c726561647920616464656400000000000000000000000000600082015250565b6000610d06601383610b4a565b9150610d1182610cd0565b602082019050919050565b60006020820190508181036000830152610d3581610cf9565b9050919050565b7f566f746572206e6f742072656769737465726564206f7220616c72656164792060008201527f766f746564000000000000000000000000000000000000000000000000000000602082015250565b6000610d98602583610b4a565b9150610da382610d3c565b604082019050919050565b60006020820190508181036000830152610dc781610d8b565b9050919050565b6000610dd982610954565b915060008203610dec57610deb610bc7565b5b60018203905091905056fea26469706673582212204d2f547d6610e1705701f24c6296e11818fa6a86cdaef68abe49a8126e54adca64736f6c63430008180033",
  "linkReferences": {},
  "deployedLinkReferences": {}
}