{
  "_format": "hh-sol-artifact-1",
  "contractName": "Election",
  "sourceName": "contracts/Election.sol",
  "abi": [
    {
      "inputs": [],
      "stateMutability": "nonpayable",
      "type": "constructor"
    },
    {
      "anonymous": false,
      "inputs": [
        {
          "indexed": true,
          "internalType": "string",
          "name": "id",
          "type": "string"
        },
        {
          "indexed": false,
          "internalType": "uint256",
          "name": "candidateId",
          "type": "uint256"
        },
        {
          "indexed": false,
          "internalType": "string",
          "name": "major",
          "type": "string"
        }
      ],
      "name": "VoteCast",
      "type": "event"
    },
    {
      "anonymous": false,
      "inputs": [
        {
          "indexed": true,
          "internalType": "string",
          "name": "id",
          "type": "string"
        },
        {
          "indexed": false,
          "internalType": "string",
          "name": "major",
          "type": "string"
        }
      ],
      "name": "VoterAdded",
      "type": "event"
    },
    {
      "anonymous": false,
      "inputs": [
        {
          "indexed": true,
          "internalType": "string",
          "name": "id",
          "type": "string"
        }
      ],
      "name": "VoterRemoved",
      "type": "event"
    },
    {
      "inputs": [
        {
          "internalType": "string",
          "name": "_id",
          "type": "string"
        },
        {
          "internalType": "string",
          "name": "_major",
          "type": "string"
        }
      ],
      "name": "addVoter",
      "outputs": [],
      "stateMutability": "nonpayable",
      "type": "function"
    },
    {
      "inputs": [],
      "name": "admin",
      "outputs": [
        {
          "internalType": "address",
          "name": "",
          "type": "address"
        }
      ],
      "stateMutability": "view",
      "type": "function"
    },
    {
      "inputs": [
        {
          "internalType": "string",
          "name": "_id",
          "type": "string"
        }
      ],
      "name": "getVoterInfo",
      "outputs": [
        {
          "internalType": "bool",
          "name": "",
          "type": "bool"
        },
        {
          "internalType": "uint256",
          "name": "",
          "type": "uint256"
        }
      ],
      "stateMutability": "view",
      "type": "function"
    },
    {
      "inputs": [
        {
          "internalType": "string",
          "name": "_id",
          "type": "string"
        }
      ],
      "name": "removeVoter",
      "outputs": [],
      "stateMutability": "nonpayable",
      "type": "function"
    },
    {
      "inputs": [
        {
          "internalType": "uint256",
          "name": "_candidateId",
          "type": "uint256"
        },
        {
          "internalType": "string",
          "name": "_major",
          "type": "string"
        }
      ],
      "name": "totalVotesByMajor",
      "outputs": [
        {
          "internalType": "uint256",
          "name": "",
          "type": "uint256"
        }
      ],
      "stateMutability": "view",
      "type": "function"
    },
    {
      "inputs": [
        {
          "internalType": "uint256",
          "name": "_candidateId",
          "type": "uint256"
        }
      ],
      "name": "totalVotesFor",
      "outputs": [
        {
          "internalType": "uint256",
          "name": "",
          "type": "uint256"
        }
      ],
      "stateMutability": "view",
      "type": "function"
    },
    {
      "inputs": [
        {
          "internalType": "string",
          "name": "_id",
          "type": "string"
        },
        {
          "internalType": "uint256",
          "name": "_candidateId",
          "type": "uint256"
        }
      ],
      "name": "vote",
      "outputs": [],
      "stateMutability": "nonpayable",
      "type": "function"
    },
    {
      "inputs": [
        {
          "internalType": "string",
          "name": "",
          "type": "string"
        }
      ],
      "name": "voters",
      "outputs": [
        {
          "internalType": "bool",
          "name": "hasVoted",
          "type": "bool"
        },
        {
          "internalType": "uint256",
          "name": "vote",
          "type": "uint256"
        },
        {
          "internalType": "string",
          "name": "major",
          "type": "string"
        }
      ],
      "stateMutability": "view",
      "type": "function"
    },
    {
      "inputs": [],
      "name": "votersCount",
      "outputs": [
        {
          "internalType": "uint256",
          "name": "",
          "type": "uint256"
        }
      ],
      "stateMutability": "view",
      "type": "function"
    },
    {
      "inputs": [
        {
          "internalType": "uint256",
          "name": "",
          "type": "uint256"
        }
      ],
      "name": "votes",
      "outputs": [
        {
          "internalType": "uint256",
          "name": "",
          "type": "uint256"
        }
      ],
      "stateMutability": "view",
      "type": "function"
    },
    {
      "inputs": [
        {
          "internalType": "uint256",
          "name": "",
          "type": "uint256"
        },
        {
          "internalType": "string",
          "name": "",
          "type": "string"
        }
      ],
      "name": "votesByMajor",
      "outputs": [
        {
          "internalType": "uint256",
          "name": "",
          "type": "uint256"
        }
      ],
      "stateMutability": "view",
      "type": "function"
    }
  ],
  "bytecode": "0x608060405234801561001057600080fd5b50336000806101000a81548173ffffffffffffffffffffffffffffffffffffffff021916908373ffffffffffffffffffffffffffffffffffffffff160217905550611764806100606000396000f3fe608060405234801561001057600080fd5b50600436106100a95760003560e01c8063a638580311610071578063a63858031461017a578063a805f1ca14610196578063c0f616e8146101c6578063d944bff4146101f6578063ef135b3714610227578063f851a44014610243576100a9565b806353fa2e64146100ae5780635df81330146100e0578063853671b91461011057806398c079381461012c5780639fbe29c01461014a575b600080fd5b6100c860048036038101906100c39190610c22565b610261565b6040516100d793929190610d1e565b60405180910390f35b6100fa60048036038101906100f59190610d88565b610336565b6040516101079190610db5565b60405180910390f35b61012a60048036038101906101259190610dd0565b61034e565b005b610134610534565b6040516101419190610db5565b60405180910390f35b610164600480360381019061015f9190610e48565b61053a565b6040516101719190610db5565b60405180910390f35b610194600480360381019061018f9190610ea4565b610575565b005b6101b060048036038101906101ab9190610d88565b61071b565b6040516101bd9190610db5565b60405180910390f35b6101e060048036038101906101db9190610e48565b610738565b6040516101ed9190610db5565b60405180910390f35b610210600480360381019061020b9190610c22565b610772565b60405161021e929190610f00565b60405180910390f35b610241600480360381019061023c9190610c22565b61086d565b005b61024b610a47565b6040516102589190610f6a565b60405180910390f35b6003818051602081018201805184825260208301602085012081835280955050505050506000915090508060000160009054906101000a900460ff16908060010154908060020180546102b390610fb4565b80601f01602080910402602001604051908101604052809291908181526020018280546102df90610fb4565b801561032c5780601f106103015761010080835404028352916020019161032c565b820191906000526020600020905b81548152906001019060200180831161030f57829003601f168201915b5050505050905083565b60016020528060005260406000206000915090505481565b60008054906101000a900473ffffffffffffffffffffffffffffffffffffffff1673ffffffffffffffffffffffffffffffffffffffff163373ffffffffffffffffffffffffffffffffffffffff16146103dc576040517f08c379a00000000000000000000000000000000000000000000000000000000081526004016103d390611057565b60405180910390fd5b6003826040516103ec91906110b3565b908152602001604051809103902060000160009054906101000a900460ff161561044b576040517f08c379a000000000000000000000000000000000000000000000000000000000815260040161044290611116565b60405180910390fd5b6040518060600160405280600015158152602001600081526020018281525060038360405161047a91906110b3565b908152602001604051809103902060008201518160000160006101000a81548160ff0219169083151502179055506020820151816001015560408201518160020190816104c791906112e2565b50905050600460008154809291906104de906113e3565b9190505550816040516104f191906110b3565b60405180910390207f194f83e0e5b0a8eab4472998c2f463089b333601aa9e94220407d5fae782723e82604051610528919061142b565b60405180910390a25050565b60045481565b600260205281600052604060002081805160208101820180518482526020830160208501208183528095505050505050600091509150505481565b600060038360405161058791906110b3565b9081526020016040518091039020905060008351116105db576040517f08c379a00000000000000000000000000000000000000000000000000000000081526004016105d290611499565b60405180910390fd5b8060000160009054906101000a900460ff161561062d576040517f08c379a000000000000000000000000000000000000000000000000000000000815260040161062490611505565b60405180910390fd5b60018160000160006101000a81548160ff021916908315150217905550818160010181905550600160008381526020019081526020016000206000815480929190610677906113e3565b919050555060026000838152602001908152602001600020816002016040516106a091906115a8565b908152602001604051809103902060008154809291906106bf906113e3565b9190505550826040516106d291906110b3565b60405180910390207f46aaf64fc4e86be28e38c6963bbc17b99f46b01d7333985a9176ac92d0d6f628838360020160405161070e929190611643565b60405180910390a2505050565b600060016000838152602001908152602001600020549050919050565b6000600260008481526020019081526020016000208260405161075b91906110b3565b908152602001604051809103902054905092915050565b600080600060038460405161078791906110b3565b90815260200160405180910390206040518060600160405290816000820160009054906101000a900460ff16151515158152602001600182015481526020016002820180546107d590610fb4565b80601f016020809104026020016040519081016040528092919081815260200182805461080190610fb4565b801561084e5780601f106108235761010080835404028352916020019161084e565b820191906000526020600020905b81548152906001019060200180831161083157829003601f168201915b5050505050815250509050806000015181602001519250925050915091565b60008054906101000a900473ffffffffffffffffffffffffffffffffffffffff1673ffffffffffffffffffffffffffffffffffffffff163373ffffffffffffffffffffffffffffffffffffffff16146108fb576040517f08c379a00000000000000000000000000000000000000000000000000000000081526004016108f290611057565b60405180910390fd5b6000151560038260405161090f91906110b3565b908152602001604051809103902060000160009054906101000a900460ff16151514801561095e5750600060038260405161094a91906110b3565b908152602001604051809103902060010154145b61099d576040517f08c379a0000000000000000000000000000000000000000000000000000000008152600401610994906116e5565b60405180910390fd5b6003816040516109ad91906110b3565b9081526020016040518091039020600080820160006101000a81549060ff021916905560018201600090556002820160006109e89190610a6b565b5050600460008154809291906109fd90611705565b919050555080604051610a1091906110b3565b60405180910390207fb899564762787ce77e1c3daf50221982caed2f56067b299766631f5eb026e80e60405160405180910390a250565b60008054906101000a900473ffffffffffffffffffffffffffffffffffffffff1681565b508054610a7790610fb4565b6000825580601f10610a895750610aa8565b601f016020900490600052602060002090810190610aa79190610aab565b5b50565b5b80821115610ac4576000816000905550600101610aac565b5090565b6000604051905090565b600080fd5b600080fd5b600080fd5b600080fd5b6000601f19601f8301169050919050565b7f4e487b7100000000000000000000000000000000000000000000000000000000600052604160045260246000fd5b610b2f82610ae6565b810181811067ffffffffffffffff82111715610b4e57610b4d610af7565b5b80604052505050565b6000610b61610ac8565b9050610b6d8282610b26565b919050565b600067ffffffffffffffff821115610b8d57610b8c610af7565b5b610b9682610ae6565b9050602081019050919050565b82818337600083830152505050565b6000610bc5610bc084610b72565b610b57565b905082815260208101848484011115610be157610be0610ae1565b5b610bec848285610ba3565b509392505050565b600082601f830112610c0957610c08610adc565b5b8135610c19848260208601610bb2565b91505092915050565b600060208284031215610c3857610c37610ad2565b5b600082013567ffffffffffffffff811115610c5657610c55610ad7565b5b610c6284828501610bf4565b91505092915050565b60008115159050919050565b610c8081610c6b565b82525050565b6000819050919050565b610c9981610c86565b82525050565b600081519050919050565b600082825260208201905092915050565b60005b83811015610cd9578082015181840152602081019050610cbe565b60008484015250505050565b6000610cf082610c9f565b610cfa8185610caa565b9350610d0a818560208601610cbb565b610d1381610ae6565b840191505092915050565b6000606082019050610d336000830186610c77565b610d406020830185610c90565b8181036040830152610d528184610ce5565b9050949350505050565b610d6581610c86565b8114610d7057600080fd5b50565b600081359050610d8281610d5c565b92915050565b600060208284031215610d9e57610d9d610ad2565b5b6000610dac84828501610d73565b91505092915050565b6000602082019050610dca6000830184610c90565b92915050565b60008060408385031215610de757610de6610ad2565b5b600083013567ffffffffffffffff811115610e0557610e04610ad7565b5b610e1185828601610bf4565b925050602083013567ffffffffffffffff811115610e3257610e31610ad7565b5b610e3e85828601610bf4565b9150509250929050565b60008060408385031215610e5f57610e5e610ad2565b5b6000610e6d85828601610d73565b925050602083013567ffffffffffffffff811115610e8e57610e8d610ad7565b5b610e9a85828601610bf4565b9150509250929050565b60008060408385031215610ebb57610eba610ad2565b5b600083013567ffffffffffffffff811115610ed957610ed8610ad7565b5b610ee585828601610bf4565b9250506020610ef685828601610d73565b9150509250929050565b6000604082019050610f156000830185610c77565b610f226020830184610c90565b9392505050565b600073ffffffffffffffffffffffffffffffffffffffff82169050919050565b6000610f5482610f29565b9050919050565b610f6481610f49565b82525050565b6000602082019050610f7f6000830184610f5b565b92915050565b7f4e487b7100000000000000000000000000000000000000000000000000000000600052602260045260246000fd5b60006002820490506001821680610fcc57607f821691505b602082108103610fdf57610fde610f85565b5b50919050565b7f4f6e6c792061646d696e2063616e20706572666f726d2074686973206163746960008201527f6f6e000000000000000000000000000000000000000000000000000000000000602082015250565b6000611041602283610caa565b915061104c82610fe5565b604082019050919050565b6000602082019050818103600083015261107081611034565b9050919050565b600081905092915050565b600061108d82610c9f565b6110978185611077565b93506110a7818560208601610cbb565b80840191505092915050565b60006110bf8284611082565b915081905092915050565b7f566f74657220616c726561647920616464656400000000000000000000000000600082015250565b6000611100601383610caa565b915061110b826110ca565b602082019050919050565b6000602082019050818103600083015261112f816110f3565b9050919050565b60008190508160005260206000209050919050565b60006020601f8301049050919050565b600082821b905092915050565b6000600883026111987fffffffffffffffffffffffffffffffffffffffffffffffffffffffffffffffff8261115b565b6111a2868361115b565b95508019841693508086168417925050509392505050565b6000819050919050565b60006111df6111da6111d584610c86565b6111ba565b610c86565b9050919050565b6000819050919050565b6111f9836111c4565b61120d611205826111e6565b848454611168565b825550505050565b600090565b611222611215565b61122d8184846111f0565b505050565b5b818110156112515761124660008261121a565b600181019050611233565b5050565b601f8211156112965761126781611136565b6112708461114b565b8101602085101561127f578190505b61129361128b8561114b565b830182611232565b50505b505050565b600082821c905092915050565b60006112b96000198460080261129b565b1980831691505092915050565b60006112d283836112a8565b9150826002028217905092915050565b6112eb82610c9f565b67ffffffffffffffff81111561130457611303610af7565b5b61130e8254610fb4565b611319828285611255565b600060209050601f83116001811461134c576000841561133a578287015190505b61134485826112c6565b8655506113ac565b601f19841661135a86611136565b60005b828110156113825784890151825560018201915060208501945060208101905061135d565b8683101561139f578489015161139b601f8916826112a8565b8355505b6001600288020188555050505b505050505050565b7f4e487b7100000000000000000000000000000000000000000000000000000000600052601160045260246000fd5b60006113ee82610c86565b91507fffffffffffffffffffffffffffffffffffffffffffffffffffffffffffffffff82036114205761141f6113b4565b5b600182019050919050565b600060208201905081810360008301526114458184610ce5565b905092915050565b7f496e76616c696420766f74657220494400000000000000000000000000000000600082015250565b6000611483601083610caa565b915061148e8261144d565b602082019050919050565b600060208201905081810360008301526114b281611476565b9050919050565b7f566f7465722068617320616c726561647920766f746564000000000000000000600082015250565b60006114ef601783610caa565b91506114fa826114b9565b602082019050919050565b6000602082019050818103600083015261151e816114e2565b9050919050565b6000815461153281610fb4565b61153c8186611077565b94506001821660008114611557576001811461156c5761159f565b60ff198316865281151582028601935061159f565b61157585611136565b60005b8381101561159757815481890152600182019150602081019050611578565b838801955050505b50505092915050565b60006115b48284611525565b915081905092915050565b600081546115cc81610fb4565b6115d68186610caa565b945060018216600081146115f157600181146116075761163a565b60ff19831686528115156020028601935061163a565b61161085611136565b60005b8381101561163257815481890152600182019150602081019050611613565b808801955050505b50505092915050565b60006040820190506116586000830185610c90565b818103602083015261166a81846115bf565b90509392505050565b7f566f746572206e6f742072656769737465726564206f7220616c72656164792060008201527f766f746564000000000000000000000000000000000000000000000000000000602082015250565b60006116cf602583610caa565b91506116da82611673565b604082019050919050565b600060208201905081810360008301526116fe816116c2565b9050919050565b600061171082610c86565b915060008203611723576117226113b4565b5b60018203905091905056fea26469706673582212206ea729ee8a1695c000a0ffd799a582982a59dafe712f34180a992ad602d2f8bb64736f6c63430008180033",
  "linkReferences": {},
  "deployedLinkReferences": {}
}