{
  "_format": "hh-sol-artifact-1",
  "contractName": "Election",
  "sourceName": "contracts/Election.sol",
  "abi": [
    {
      "inputs": [],
      "stateMutability": "nonpayable",
      "type": "constructor"
    },
    {
      "anonymous": false,
      "inputs": [
        {
          "indexed": false,
          "internalType": "uint256",
          "name": "candidateId",
          "type": "uint256"
        },
        {
          "indexed": false,
          "internalType": "string",
          "name": "name",
          "type": "string"
        }
      ],
      "name": "CandidateAdded",
      "type": "event"
    },
    {
      "anonymous": false,
      "inputs": [
        {
          "indexed": false,
          "internalType": "address",
          "name": "voter",
          "type": "address"
        },
        {
          "indexed": false,
          "internalType": "uint256",
          "name": "candidateId",
          "type": "uint256"
        }
      ],
      "name": "VoteCast",
      "type": "event"
    },
    {
      "anonymous": false,
      "inputs": [
        {
          "indexed": false,
          "internalType": "address",
          "name": "voter",
          "type": "address"
        }
      ],
      "name": "VoterAdded",
      "type": "event"
    },
    {
      "inputs": [],
      "name": "admin",
      "outputs": [
        {
          "internalType": "address",
          "name": "",
          "type": "address"
        }
      ],
      "stateMutability": "view",
      "type": "function"
    },
    {
      "inputs": [
        {
          "internalType": "address",
          "name": "_voter",
          "type": "address"
        }
      ],
      "name": "hasVoted",
      "outputs": [
        {
          "internalType": "bool",
          "name": "",
          "type": "bool"
        }
      ],
      "stateMutability": "view",
      "type": "function"
    },
    {
      "inputs": [
        {
          "internalType": "uint256",
          "name": "_candidateId",
          "type": "uint256"
        }
      ],
      "name": "totalVotesFor",
      "outputs": [
        {
          "internalType": "uint256",
          "name": "",
          "type": "uint256"
        }
      ],
      "stateMutability": "view",
      "type": "function"
    },
    {
      "inputs": [
        {
          "internalType": "uint256",
          "name": "_candidateId",
          "type": "uint256"
        }
      ],
      "name": "vote",
      "outputs": [],
      "stateMutability": "nonpayable",
      "type": "function"
    },
    {
      "inputs": [
        {
          "internalType": "address",
          "name": "",
          "type": "address"
        }
      ],
      "name": "voters",
      "outputs": [
        {
          "internalType": "bool",
          "name": "hasVoted",
          "type": "bool"
        },
        {
          "internalType": "uint256",
          "name": "vote",
          "type": "uint256"
        }
      ],
      "stateMutability": "view",
      "type": "function"
    },
    {
      "inputs": [],
      "name": "votersCount",
      "outputs": [
        {
          "internalType": "uint256",
          "name": "",
          "type": "uint256"
        }
      ],
      "stateMutability": "view",
      "type": "function"
    },
    {
      "inputs": [
        {
          "internalType": "uint256",
          "name": "",
          "type": "uint256"
        }
      ],
      "name": "votes",
      "outputs": [
        {
          "internalType": "uint256",
          "name": "",
          "type": "uint256"
        }
      ],
      "stateMutability": "view",
      "type": "function"
    }
  ],
  "bytecode": "0x608060405234801561001057600080fd5b50336000806101000a81548173ffffffffffffffffffffffffffffffffffffffff021916908373ffffffffffffffffffffffffffffffffffffffff1602179055506106b6806100606000396000f3fe608060405234801561001057600080fd5b506004361061007d5760003560e01c806398c079381161005b57806398c07938146100fe578063a3ec138d1461011c578063a805f1ca1461014d578063f851a4401461017d5761007d565b80630121b93f1461008257806309eef43e1461009e5780635df81330146100ce575b600080fd5b61009c600480360381019061009791906103f8565b61019b565b005b6100b860048036038101906100b39190610483565b6102d4565b6040516100c591906104cb565b60405180910390f35b6100e860048036038101906100e391906103f8565b61032d565b6040516100f591906104f5565b60405180910390f35b610106610345565b60405161011391906104f5565b60405180910390f35b61013660048036038101906101319190610483565b61034b565b604051610144929190610510565b60405180910390f35b610167600480360381019061016291906103f8565b61037c565b60405161017491906104f5565b60405180910390f35b610185610399565b6040516101929190610548565b60405180910390f35b6000600260003373ffffffffffffffffffffffffffffffffffffffff1673ffffffffffffffffffffffffffffffffffffffff16815260200190815260200160002090508060000160009054906101000a900460ff1615610230576040517f08c379a0000000000000000000000000000000000000000000000000000000008152600401610227906105c0565b60405180910390fd5b60018160000160006101000a81548160ff02191690831515021790555081816001018190555060016000838152602001908152602001600020600081548092919061027a9061060f565b9190505550600360008154809291906102929061060f565b91905055507fa36cc2bebb74db33e9f88110a07ef56e1b31b24b4c4f51b54b1664266e29f45b33836040516102c8929190610657565b60405180910390a15050565b6000600260008373ffffffffffffffffffffffffffffffffffffffff1673ffffffffffffffffffffffffffffffffffffffff16815260200190815260200160002060000160009054906101000a900460ff169050919050565b60016020528060005260406000206000915090505481565b60035481565b60026020528060005260406000206000915090508060000160009054906101000a900460ff16908060010154905082565b600060016000838152602001908152602001600020549050919050565b60008054906101000a900473ffffffffffffffffffffffffffffffffffffffff1681565b600080fd5b6000819050919050565b6103d5816103c2565b81146103e057600080fd5b50565b6000813590506103f2816103cc565b92915050565b60006020828403121561040e5761040d6103bd565b5b600061041c848285016103e3565b91505092915050565b600073ffffffffffffffffffffffffffffffffffffffff82169050919050565b600061045082610425565b9050919050565b61046081610445565b811461046b57600080fd5b50565b60008135905061047d81610457565b92915050565b600060208284031215610499576104986103bd565b5b60006104a78482850161046e565b91505092915050565b60008115159050919050565b6104c5816104b0565b82525050565b60006020820190506104e060008301846104bc565b92915050565b6104ef816103c2565b82525050565b600060208201905061050a60008301846104e6565b92915050565b600060408201905061052560008301856104bc565b61053260208301846104e6565b9392505050565b61054281610445565b82525050565b600060208201905061055d6000830184610539565b92915050565b600082825260208201905092915050565b7f566f7465722068617320616c726561647920766f746564000000000000000000600082015250565b60006105aa601783610563565b91506105b582610574565b602082019050919050565b600060208201905081810360008301526105d98161059d565b9050919050565b7f4e487b7100000000000000000000000000000000000000000000000000000000600052601160045260246000fd5b600061061a826103c2565b91507fffffffffffffffffffffffffffffffffffffffffffffffffffffffffffffffff820361064c5761064b6105e0565b5b600182019050919050565b600060408201905061066c6000830185610539565b61067960208301846104e6565b939250505056fea26469706673582212201d02353e2b01d3fcbbd26de1680ff87311aca80c3bcc80ec6e38beba7dac2abf64736f6c63430008180033",
  "linkReferences": {},
  "deployedLinkReferences": {}
}